:100000000C9434000C943E000C943E000C943E0082
:100010000C943E000C943E000C943E000C943E0068
:100020000C943E000C943E000C943E000C943E0058
:100030000C943E000C943E000C943E000C943E0048
:100040000C943E000C943E000C943E000C943E0038
:100050000C943E000C943E000C943E000C943E0028
:100060000C943E000C943E0011241FBECFEFD8E04C
:10007000DEBFCDBF0E9457000C945C000C940000C2
:10008000209A0895289A80E197E220E931E0F90169
:100090003197F1F70197D9F7289880E197E220E9A5
:1000A00031E0F9013197F1F70197D9F708950E94EE
:0C00B00040000E944200FDCFF894FFCFFA
:00000001FF
